{"abi":[{"type":"function","name":"checkCondition","inputs":[],"outputs":[{"name":"","type":"string[]","internalType":"string[]"}],"stateMutability":"nonpayable"},{"type":"function","name":"ciphertext","inputs":[],"outputs":[{"name":"cipher","type":"bytes","internalType":"bytes"},{"name":"req_id","type":"string","internalType":"string"}],"stateMutability":"view"},{"type":"function","name":"keySubmission","inputs":[{"name":"key","type":"bytes","internalType":"bytes"},{"name":"condition","type":"string","internalType":"string"}],"outputs":[{"name":"","type":"bytes","internalType":"bytes"}],"stateMutability":"nonpayable"},{"type":"function","name":"plaintext","inputs":[],"outputs":[{"name":"","type":"bytes","internalType":"bytes"}],"stateMutability":"view"},{"type":"function","name":"storeCipher","inputs":[{"name":"_cipher","type":"bytes","internalType":"bytes"},{"name":"req_id","type":"string","internalType":"string"}],"outputs":[],"stateMutability":"nonpayable"},{"type":"event","name":"SatisfiedConditions","inputs":[{"name":"conditions","type":"string[]","indexed":false,"internalType":"string[]"}],"anonymous":false}],"bytecode":{"object":"0x6080604052348015600f57600080fd5b50610ce88061001f6000396000f3fe608060405234801561001057600080fd5b50600436106100575760003560e01c80634e05199c1461005c57806376ae56a51461007b578063c7af71da14610090578063e1470d07146100a5578063ef5291cb146100b8575b600080fd5b6100646100cd565b604051610072929190610733565b60405180910390f35b6100836101ed565b6040516100729190610761565b61009861027b565b604051610072919061077b565b6100836100b3366004610829565b6103d3565b6100cb6100c636600461092a565b6106c5565b005b6000805481906100dc906109bb565b80601f0160208091040260200160405190810160405280929190818152602001828054610108906109bb565b80156101555780601f1061012a57610100808354040283529160200191610155565b820191906000526020600020905b81548152906001019060200180831161013857829003601f168201915b50505050509080600101805461016a906109bb565b80601f0160208091040260200160405190810160405280929190818152602001828054610196906109bb565b80156101e35780601f106101b8576101008083540402835291602001916101e3565b820191906000526020600020905b8154815290600101906020018083116101c657829003601f168201915b5050505050905082565b600280546101fa906109bb565b80601f0160208091040260200160405190810160405280929190818152602001828054610226906109bb565b80156102735780601f1061024857610100808354040283529160200191610273565b820191906000526020600020905b81548152906001019060200180831161025657829003601f168201915b505050505081565b606060405160200161029890602080825260009082015260400190565b60408051601f19818403018152908290528051602091820120916102bf91600191016109ef565b60405160208183030381529060405280519060200120146103a257604080516064808252610ca08201909252600091816020015b60608152602001906001900390816102f357505060405190915061031c90600190602001610aed565b6040516020818303038152906040528160008151811061033e5761033e610af9565b60200260200101819052507f2abd95116cf98e35e77764c51dce750dda6571d8de55469a52a794b74bd6d84381604051610378919061077b565b60405180910390a160408051602081019091526000815260019061039c9082610b5d565b50919050565b60408051600080825260208201909252906103cd565b60608152602001906001900390816103b85790505b50905090565b6060600060949050600084848080601f0160208091040260200160405190810160405280939291908181526020018383808284376000920182905250805494955093849350610424925090506109bb565b6040805160048082528183019092529193506000925060208201818036833701905050905060188263ffffffff16901c60f81b8160008151811061046a5761046a610af9565b60200101906001600160f81b031916908160001a90535060108263ffffffff16901c60f81b816001815181106104a2576104a2610af9565b60200101906001600160f81b031916908160001a90535060088263ffffffff16901c60f81b816002815181106104da576104da610af9565b60200101906001600160f81b031916908160001a9053508160f81b8160038151811061050857610508610af9565b60200101906001600160f81b031916908160001a905350825160408051600480825281830190925260009160208201818036833701905050905060188263ffffffff16901c60f81b8160008151811061056357610563610af9565b60200101906001600160f81b031916908160001a90535060108263ffffffff16901c60f81b8160018151811061059b5761059b610af9565b60200101906001600160f81b031916908160001a90535060088263ffffffff16901c60f81b816002815181106105d3576105d3610af9565b60200101906001600160f81b031916908160001a9053508160f81b8160038151811061060157610601610af9565b60200101906001600160f81b031916908160001a905350600080876001600160a01b031660038e8e8887600080018d6040516020016106469796959493929190610c1c565b60408051601f198184030181529082905261066091610c96565b6000604051808303816000865af19150503d806000811461069d576040519150601f19603f3d011682016040523d82523d6000602084013e6106a2565b606091505b50909250905060026106b48282610b5d565b509c9b505050505050505050505050565b60006106d18382610b5d565b5060016106de8282610b5d565b505050565b60005b838110156106fe5781810151838201526020016106e6565b50506000910152565b6000815180845261071f8160208601602086016106e3565b601f01601f19169290920160200192915050565b6040815260006107466040830185610707565b82810360208401526107588185610707565b95945050505050565b6020815260006107746020830184610707565b9392505050565b6000602082016020835280845180835260408501915060408160051b86010192506020860160005b828110156107d457603f198786030184526107bf858351610707565b945060209384019391909101906001016107a3565b50929695505050505050565b60008083601f8401126107f257600080fd5b50813567ffffffffffffffff81111561080a57600080fd5b60208301915083602082850101111561082257600080fd5b9250929050565b6000806000806040858703121561083f57600080fd5b843567ffffffffffffffff81111561085657600080fd5b610862878288016107e0565b909550935050602085013567ffffffffffffffff81111561088257600080fd5b61088e878288016107e0565b95989497509550505050565b634e487b7160e01b600052604160045260246000fd5b60008067ffffffffffffffff8411156108cb576108cb61089a565b50604051601f19601f85018116603f0116810181811067ffffffffffffffff821117156108fa576108fa61089a565b60405283815290508082840185101561091257600080fd5b83836020830137600060208583010152509392505050565b6000806040838503121561093d57600080fd5b823567ffffffffffffffff81111561095457600080fd5b8301601f8101851361096557600080fd5b610974858235602084016108b0565b925050602083013567ffffffffffffffff81111561099157600080fd5b8301601f810185136109a257600080fd5b6109b1858235602084016108b0565b9150509250929050565b600181811c908216806109cf57607f821691505b60208210810361039c57634e487b7160e01b600052602260045260246000fd5b602081526000808354610a01816109bb565b8060208601526001821660008114610a205760018114610a3c57610a70565b60ff1983166040870152604082151560051b8701019350610a70565b86600052602060002060005b83811015610a6757815488820160400152600190910190602001610a48565b87016040019450505b509195945050505050565b60008154610a88816109bb565b600182168015610a9f5760018114610ab457610ae4565b60ff1983168652811515820286019350610ae4565b84600052602060002060005b83811015610adc57815488820152600190910190602001610ac0565b505081860193505b50505092915050565b60006107748284610a7b565b634e487b7160e01b600052603260045260246000fd5b601f8211156106de57806000526020600020601f840160051c81016020851015610b365750805b601f840160051c820191505b81811015610b565760008155600101610b42565b5050505050565b815167ffffffffffffffff811115610b7757610b7761089a565b610b8b81610b8584546109bb565b84610b0f565b6020601f821160018114610bbf5760008315610ba75750848201515b600019600385901b1c1916600184901b178455610b56565b600084815260208120601f198516915b82811015610bef5787850151825560209485019460019092019101610bcf565b5084821015610c0d5786840151600019600387901b60f8161c191681555b50505050600190811b01905550565b60f888901b6001600160f81b031916815285876001830137600086820160018101600081528751610c51818360208c016106e3565b87519201600101919050610c69818360208a016106e3565b610c7581830187610a7b565b9150508351610c888183602088016106e3565b019998505050505050505050565b60008251610ca88184602087016106e3565b919091019291505056fea264697066735822122079fed47cd478c08a90f95d185e60e531f0b5e6233605c66c6aadaf4e8cf40ecb64736f6c634300081a0033","linkReferences":{}},"methodIdentifiers":{"checkCondition()":"c7af71da","ciphertext()":"4e05199c","keySubmission(bytes,string)":"e1470d07","plaintext()":"76ae56a5","storeCipher(bytes,string)":"ef5291cb"},"id":0}