{"abi":[{"type":"function","name":"checkCondition","inputs":[],"outputs":[{"name":"","type":"string[]","internalType":"string[]"}],"stateMutability":"nonpayable"},{"type":"function","name":"ciphertext","inputs":[],"outputs":[{"name":"cipher","type":"bytes","internalType":"bytes"},{"name":"req_id","type":"string","internalType":"string"}],"stateMutability":"view"},{"type":"function","name":"keySubmission","inputs":[{"name":"key","type":"bytes","internalType":"bytes"},{"name":"condition","type":"string","internalType":"string"}],"outputs":[{"name":"","type":"bytes","internalType":"bytes"}],"stateMutability":"nonpayable"},{"type":"function","name":"plaintext","inputs":[],"outputs":[{"name":"","type":"bytes","internalType":"bytes"}],"stateMutability":"view"},{"type":"function","name":"storeCipher","inputs":[{"name":"_cipher","type":"bytes","internalType":"bytes"},{"name":"req_id","type":"string","internalType":"string"}],"outputs":[],"stateMutability":"nonpayable"},{"type":"event","name":"SatisfiedConditions","inputs":[{"name":"conditions","type":"string[]","indexed":false,"internalType":"string[]"}],"anonymous":false}],"bytecode":{"object":"0x6080604052348015600f57600080fd5b50610a398061001f6000396000f3fe608060405234801561001057600080fd5b50600436106100575760003560e01c80634e05199c1461005c57806376ae56a51461007b578063c7af71da14610090578063e1470d07146100a5578063ef5291cb146100b8575b600080fd5b6100646100cd565b6040516100729291906104dd565b60405180910390f35b6100836101ed565b604051610072919061050b565b61009861027b565b6040516100729190610525565b6100836100b33660046105d3565b6103d3565b6100cb6100c63660046106d4565b61046f565b005b6000805481906100dc90610765565b80601f016020809104026020016040519081016040528092919081815260200182805461010890610765565b80156101555780601f1061012a57610100808354040283529160200191610155565b820191906000526020600020905b81548152906001019060200180831161013857829003601f168201915b50505050509080600101805461016a90610765565b80601f016020809104026020016040519081016040528092919081815260200182805461019690610765565b80156101e35780601f106101b8576101008083540402835291602001916101e3565b820191906000526020600020905b8154815290600101906020018083116101c657829003601f168201915b5050505050905082565b600280546101fa90610765565b80601f016020809104026020016040519081016040528092919081815260200182805461022690610765565b80156102735780601f1061024857610100808354040283529160200191610273565b820191906000526020600020905b81548152906001019060200180831161025657829003601f168201915b505050505081565b606060405160200161029890602080825260009082015260400190565b60408051601f19818403018152908290528051602091820120916102bf9160019101610799565b60405160208183030381529060405280519060200120146103a257604080516064808252610ca08201909252600091816020015b60608152602001906001900390816102f357505060405190915061031c90600190602001610897565b6040516020818303038152906040528160008151811061033e5761033e6108a3565b60200260200101819052507f2abd95116cf98e35e77764c51dce750dda6571d8de55469a52a794b74bd6d843816040516103789190610525565b60405180910390a160408051602081019091526000815260019061039c9082610907565b50919050565b60408051600080825260208201909252906103cd565b60608152602001906001900390816103b85790505b50905090565b604051606090609490600090819083906103f5908a908a9085906020016109c6565b60408051601f198184030181529082905261040f916109e7565b6000604051808303816000865af19150503d806000811461044c576040519150601f19603f3d011682016040523d82523d6000602084013e610451565b606091505b50909250905060026104638282610907565b50979650505050505050565b600061047b8382610907565b5060016104888282610907565b505050565b60005b838110156104a8578181015183820152602001610490565b50506000910152565b600081518084526104c981602086016020860161048d565b601f01601f19169290920160200192915050565b6040815260006104f060408301856104b1565b828103602084015261050281856104b1565b95945050505050565b60208152600061051e60208301846104b1565b9392505050565b6000602082016020835280845180835260408501915060408160051b86010192506020860160005b8281101561057e57603f198786030184526105698583516104b1565b9450602093840193919091019060010161054d565b50929695505050505050565b60008083601f84011261059c57600080fd5b50813567ffffffffffffffff8111156105b457600080fd5b6020830191508360208285010111156105cc57600080fd5b9250929050565b600080600080604085870312156105e957600080fd5b843567ffffffffffffffff81111561060057600080fd5b61060c8782880161058a565b909550935050602085013567ffffffffffffffff81111561062c57600080fd5b6106388782880161058a565b95989497509550505050565b634e487b7160e01b600052604160045260246000fd5b60008067ffffffffffffffff84111561067557610675610644565b50604051601f19601f85018116603f0116810181811067ffffffffffffffff821117156106a4576106a4610644565b6040528381529050808284018510156106bc57600080fd5b83836020830137600060208583010152509392505050565b600080604083850312156106e757600080fd5b823567ffffffffffffffff8111156106fe57600080fd5b8301601f8101851361070f57600080fd5b61071e8582356020840161065a565b925050602083013567ffffffffffffffff81111561073b57600080fd5b8301601f8101851361074c57600080fd5b61075b8582356020840161065a565b9150509250929050565b600181811c9082168061077957607f821691505b60208210810361039c57634e487b7160e01b600052602260045260246000fd5b6020815260008083546107ab81610765565b80602086015260018216600081146107ca57600181146107e65761081a565b60ff1983166040870152604082151560051b870101935061081a565b86600052602060002060005b83811015610811578154888201604001526001909101906020016107f2565b87016040019450505b509195945050505050565b6000815461083281610765565b600182168015610849576001811461085e5761088e565b60ff198316865281151582028601935061088e565b84600052602060002060005b838110156108865781548882015260019091019060200161086a565b505081860193505b50505092915050565b600061051e8284610825565b634e487b7160e01b600052603260045260246000fd5b601f82111561048857806000526020600020601f840160051c810160208510156108e05750805b601f840160051c820191505b8181101561090057600081556001016108ec565b5050505050565b815167ffffffffffffffff81111561092157610921610644565b6109358161092f8454610765565b846108b9565b6020601f82116001811461096957600083156109515750848201515b600019600385901b1c1916600184901b178455610900565b600084815260208120601f198516915b828110156109995787850151825560209485019460019092019101610979565b50848210156109b75786840151600019600387901b60f8161c191681555b50505050600190811b01905550565b828482376000838201600081526109dd8185610825565b9695505050505050565b600082516109f981846020870161048d565b919091019291505056fea2646970667358221220f91fb99cc990621094e43544ea5749178a6c74b903537832d114095df15abb8a64736f6c634300081a0033","linkReferences":{}},"methodIdentifiers":{"checkCondition()":"c7af71da","ciphertext()":"4e05199c","keySubmission(bytes,string)":"e1470d07","plaintext()":"76ae56a5","storeCipher(bytes,string)":"ef5291cb"},"id":0}